:1000000015EF00F0EA6A0C0EE96EEF500DE0010EFC
:10001000016E006A002EFED7012EFBD79E0E006EE9
:10002000002EFED7EF2EF3D71200F86AD09EEA6AB0
:10003000E96A949E8B8EC150C00B0F09C16E070EEA
:10004000B46E046A056AB16A0B6A0B6A0B50B30896
:1000500009E3939C8A8C0A0E0C6ED4DF939C8A9CD5
:100060000B2AF4D7B40E0B6E09D0939C8A8C0A0E1F
:100070000C6EC8DF939C8A9C0B06F6D7E6D703006C
:020000040030CA
:0E0000003CCC380E0087A1000FC00FE00F406F
:00000001FF
;PIC18F4550
;CRC=E52B  CREATED="29-Sep-14 17:15"
