:1000000028EF00F0076AE40E006E002EFED700D045
:10001000076A0650075C06E2020E006E002EFED74D
:10002000072AF7D740EF00F0EA6A060EE96EEF50B4
:100030000DE0010E016E006A002EFED7012EFBD7E7
:100040009E0E006E002EFED7EF2EF3D745EF00F088
:10005000F86AD09EEA6AE96A046AC150C00B0F09C7
:10006000C16E070EB46E046A0450B40813E3056A47
:10007000055031080CE395908C8004C006F0C2D77F
:1000800095908C90120E066ECFD7052AF1D72D0EC3
:080090000426EAD7E8D70300BB
:020000040030CA
:0E0000003CCC380E0087A1000FC00FE00F406F
:00000001FF
;PIC18F4550
;CRC=35D8  CREATED="05-Oct-14 22:47"
